:100000000C9462000C948A000C948A000C948A0070
:100010000C948A000C948A000C948A000C948A0038
:100020000C948A000C948A000C948A000C948A0028
:100030000C948A000C948A000C948A000C948A0018
:100040000C9432050C948A000C94A2050C947C0547
:100050000C948A000C948A000C948A000C948A00F8
:100060000C948A000C948A000000000024002700F1
:100070002A0000000000250028002B0000000000DE
:1000800023002600290004040404040404040202DA
:100090000202020203030303030301020408102007
:1000A0004080010204081020010204081020000012
:1000B0000008000201000003040700000000000027
:1000C0000000D40511241FBECFEFD8E0DEBFCDBFA6
:1000D00012E0A0E0B1E0E2E6F8E102C005900D9286
:1000E000AC30B107D9F723E0ACE0B2E001C01D921B
:1000F000A834B207E1F710E0C2E6D0E004C02197CF
:10010000FE010E941A0CC136D107C9F70E948C0665
:100110000C942F0C0C94000096E0899FD0011124C0
:10012000A752BD4F90967C936E935F9791E0919606
:100130009C939197E0914603F0914703909145037A
:10014000992339F0309751F0811108C08091F50260
:100150000994309719F05C968C91FACF0895CF925C
:10016000DF92EF92FF920F931F9396E0899FF00129
:100170001124E752FD4F11A2278D30A12130310506
:1001800051F178F02230310509F451C023303105A6
:1001900009F452C01F910F91FF90EF90DF90CF9024
:1001A00008956623B9F361E070E00E948C002FB7D8
:1001B000F8948091200290912102A0912202B091A6
:1001C00023022FBF8093310390933203A093330314
:1001D000B0933403DFCF9FB7F894C0902002D09043
:1001E0002102E0902202F09023029FBF0091310390
:1001F000109132032091330330913403C01AD10A95
:10020000E20AF30A009143031091440330E020E036
:100210000C151D052E053F0550F462E070E01F919E
:100220000F91FF90EF90DF90CF900C948C006111B4
:10023000B1CF63E070E0F3CF70E060E0F0CFFC019D
:10024000538D448D252F30E0842F90E0821B930B3B
:10025000541710F0CF96089501970895FC01918DE1
:10026000828D981761F0A28DAE0FBF2FB11D5D96E4
:100270008C91928D9F5F9F73928F90E008958FEF86
:100280009FEF0895FC01918D828D981731F0828D3A
:10029000E80FF11D858D90E008958FEF9FEF089591
:1002A000FC01918D228D892F90E0805C9F4F821BF5
:1002B00091098F7399270895FC01A48DA80FB92F78
:1002C000B11DA35ABF4F2C91848D90E001968F737E
:1002D0009927848FA689B7892C93A089B1898C919D
:1002E000837080648C93938D848D981306C00288EC
:1002F000F389E02D80818F7D80830895EF92FF92B6
:100300000F931F93CF93DF93EC0181E0888F9B8D38
:100310008C8D98131AC0E889F989808185FF15C0F2
:100320009FB7F894EE89FF896083E889F989808115
:100330008370806480839FBF81E090E0DF91CF91E4
:100340001F910F91FF90EF900895F62E0B8D10E006
:100350000F5F1F4F0F731127E02E8C8D8E110CC075
:100360000FB607FCFACFE889F989808185FFF5CFC0
:10037000CE010E945C01F1CFEB8DEC0FFD2FF11D42
:10038000E35AFF4FF0829FB7F8940B8FEA89FB89FD
:1003900080818062CFCFCF93DF93EC01888D88235B
:1003A000B9F0AA89BB89E889F9898C9185FD03C0D8
:1003B000808186FD0DC00FB607FCF7CF8C9185FFBD
:1003C000F2CF808185FFEDCFCE010E945C01E9CFA5
:1003D000DF91CF91089584E292E00E94500121E0E4
:1003E000892B09F420E0822F089580E090E0892B8A
:1003F00029F00E94EB0181110C94000008958330D4
:1004000081F028F4813099F08230A9F00895873086
:10041000A9F08830C9F08430B1F4809180008F7DDC
:1004200003C0809180008F7780938000089584B509
:100430008F7784BD089584B58F7DFBCF8091B00008
:100440008F778093B00008958091B0008F7DF9CFB1
:10045000CF93DF93282F30E0F901E255FF4F8491CD
:10046000F901E656FF4FD491F901EA57FF4FC491C5
:10047000CC23A1F081110E94FF01EC2FF0E0EE0FE0
:10048000FF1FE458FF4FA591B491EC91ED2381E05B
:1004900090E009F480E0DF91CF91089580E090E052
:1004A000FACF1F93CF93DF93282F30E0F901E25565
:1004B000FF4F8491F901E656FF4FD491F901EA57B5
:1004C000FF4FC491CC23A9F0162F81110E94FF0188
:1004D000EC2FF0E0EE0FFF1FEE58FF4FA591B49107
:1004E0008FB7F894EC91111108C0D095DE23DC93FE
:1004F0008FBFDF91CF911F910895DE2BF8CFCF935F
:10050000DF9390E0FC01E656FF4F24918A579F4FFE
:10051000FC0184918823C9F090E0880F991FFC01A9
:10052000E859FF4FA591B491FC01EE58FF4FC591DA
:10053000D49161110DC09FB7F8948C9120958223BE
:100540008C938881282328839FBFDF91CF910895C2
:10055000623051F49FB7F8943C91822F80958323A9
:100560008C93E8812E2BEFCF8FB7F894EC912E2B44
:100570002C938FBFEACF3FB7F89480911C029091E3
:100580001D02A0911E02B0911F0226B5A89B05C0B6
:100590002F3F19F00196A11DB11D3FBFBA2FA92F02
:1005A000982F8827BC01CD01620F711D811D911DFF
:1005B00042E0660F771F881F991F4A95D1F708956B
:1005C0008F929F92AF92BF92CF92DF92EF92FF9263
:1005D0004B015C010E94BB026B017C010E94BB02CB
:1005E0006C197D098E099F09683E7340810591054C
:1005F000A8F321E0821A9108A108B10888EEC80E7C
:1006000083E0D81EE11CF11C81149104A104B10403
:1006100029F7FF90EF90DF90CF90BF90AF909F9021
:100620008F900895862F642F0C947F02862F642F5D
:100630000C945102862F0C942802AF92BF92CF9255
:10064000DF92EF92FF920F931F93CF93DF936C0192
:100650007B018B01040F151FEB015E01AE18BF0873
:10066000C017D10759F06991D601ED91FC91019025
:10067000F081E02DC6010995892B79F7C501DF913D
:10068000CF911F910F91FF90EF90DF90CF90BF908F
:10069000AF900895089590E080E00895CF93DF93A0
:1006A000EC0160E08E810E94510261E08E810E9427
:1006B000510260E08E810E9451028BE891E0019727
:1006C000F1F7DF91CF910895CF92DF92EF92FF92F1
:1006D0000F931F93CF93DF936C017C0187E0E80EAB
:1006E000F11CD0E0C0E0062F10E0B8010C2E02C0D3
:1006F000759567950A94E2F76170F70181917F0122
:100700000E9451022196C430D10579F7C601DF91CC
:10071000CF911F910F91FF90EF90DF90CF900C94AD
:100720004E03CF92DF92EF92FF920F931F93CF93DE
:10073000DF93EC01F62E642F8C810E9451028D8193
:100740008F3F19F060E00E9451020F2D10E08F855D
:1007500084FF25C06E0187E0C80ED11CF12CE12C6E
:10076000B8010E2C02C0759567950A94E2F7617086
:10077000F60181916F010E945102FFEFEF1AFF0A0B
:1007800088E0E816F10461F7CE01DF91CF911F9167
:100790000F91FF90EF90DF90CF900C944E03B80133
:1007A00084E0759567958A95E1F7CE010E94640310
:1007B0006F2DCE01DF91CF911F910F91FF90EF90A0
:1007C000DF90CF900C94640340E0682F81EC92E0BE
:1007D0000C94910381E00E94E4038BE39FE1019775
:1007E000F1F70895CF93DF93823029F49091D002EE
:1007F00098609093D0028093D4021092D50280E446
:100800008093D60280E18093D70280E58093D8025E
:1008100061E08091C5020E947F028091C6028F3FF5
:1008200019F061E00E947F0261E08091C7020E949E
:100830007F02C1ECD2E09E01215C32408091D00267
:1008400084FD0BC084E090E021962817390744F41A
:1008500061E08E810E947F02EECF88E090E0F4CFCD
:100860008BE39DE00197F1F760E08091C5020E9463
:10087000510260E08091C7020E9451028091C6023D
:100880008F3F19F060E00E9451028091D00284FDF8
:1008900034C063E081EC92E00E946403CBE4D6E4D0
:1008A000CE010197F1F763E081EC92E00E946403CE
:1008B0002197F1F763E081EC92E00E94640383E505
:1008C00092E00197F1F762E081EC92E00E9464030C
:1008D0008091D00280620E94E40384E08093D10280
:1008E0008CE00E94E4030E94EA0382E08093D2023B
:1008F00086E0DF91CF910C94E40380620E94E403D0
:100900008BE496E40197F1F78091D00280620E9417
:10091000E40383E592E00197F1F78091D0028062D1
:100920000E94E403D5CF41E00E94910381E090E072
:100930000895FB0101900020E9F73197AF01461BB4
:10094000570BDC01ED91FC910280F381E02D0994BD
:10095000CF92DF92EF92FF920F931F93CF93DF938B
:10096000CDB7DEB7A1970FB6F894DEBF0FBECDBFEF
:100970006B017C01F7FE3EC041E06DE281EC92E04C
:100980000E94910322273327A9012C193D094E0902
:100990005F0919A28E010F5D1F4F9AE0C92ED12C5D
:1009A000E12CF12CCA01B901A70196010E94CE0BDE
:1009B000605DF80162938F012115310541055105F4
:1009C00089F790E080E0309729F0BF0181EC92E058
:1009D0000E9499040196A1960FB6F894DEBF0FBE4F
:1009E000CDBFDF91CF911F910F91FF90EF90DF90DE
:1009F000CF900895AC019B0119A28E010F5D1F4F8E
:100A00008AE0C82ED12CE12CF12CCA01B901A70132
:100A100096010E94CE0B605DF80162938F01211553
:100A200031054105510589F790E080E0309799F252
:100A3000BF0181EC92E00E949904CDCF0F931F93E8
:100A4000CF93DF93EC010E9499048C0160E471E084
:100A5000CE010E949904800F911FDF91CF911F91C9
:100A60000F9108951F920F920FB60F9211242F939A
:100A70003F938F939F93AF93BF9380912002909168
:100A80002102A0912202B091230230911B0223E0A7
:100A9000230F2D3758F50196A11DB11D20931B0280
:100AA0008093200290932102A0932202B09323020C
:100AB00080911C0290911D02A0911E02B0911F0214
:100AC0000196A11DB11D80931C0290931D02A0935D
:100AD0001E02B0931F02BF91AF919F918F913F91E2
:100AE0002F910F900FBE0F901F90189526E8230F9F
:100AF0000296A11DB11DD2CF1F920F920FB60F9279
:100B000011242F933F934F935F936F937F938F9312
:100B10009F93AF93BF93EF93FF9384E292E00E9481
:100B20005C01FF91EF91BF91AF919F918F917F9168
:100B30006F915F914F913F912F910F900FBE0F904A
:100B40001F9018951F920F920FB60F9211242F939A
:100B50008F939F93EF93FF93E0913402F0913502CE
:100B60008081E0913A02F0913B0282FD1BC09081AE
:100B700080913D028F5F8F7320913E02821741F07A
:100B8000E0913D02F0E0EC5DFD4F958F80933D02DA
:100B9000FF91EF919F918F912F910F900FBE0F902A
:100BA0001F9018958081F4CF109227021092260290
:100BB00088EE93E0A0E0B0E08093280290932902B1
:100BC000A0932A02B0932B028CE191E0909325022E
:100BD0008093240285EC90E0909331028093300260
:100BE00084EC90E0909333028093320280EC90E0AA
:100BF000909335028093340281EC90E09093370219
:100C00008093360282EC90E0909339028093380210
:100C100086EC90E090933B0280933A0210923D0262
:100C200010923E0210923F02109240021092DB029C
:100C30001092DF021092DE021092E0028AE391E04D
:100C40009093DA028093D902E5EFF2E010821482E9
:100C500013821582369683E0E133F807B9F784E012
:100C600091E090933C0380933B0380E091E090936C
:100C70003E0380933D0384E080933F0380934003D1
:100C800088E091E090933A03809339038AE090E002
:100C9000909342038093410384EF91E09093440347
:100CA000809343031092470310924603109235033A
:100CB00010923603109237031092380310924503B6
:100CC0001092C4021092C3028EE291E09093C2028D
:100CD0008093C10288E08093C5028FEF8093C602A3
:100CE00089E08093C7028AE08093C8028BE08093FA
:100CF000C9028CE08093CA028DE08093CB021092EF
:100D0000CC021092CD021092CE021092CF0210921D
:100D1000D00281E00C94F203789484B5826084BDA3
:100D200084B5816084BD85B5826085BD85B58160EF
:100D300085BD80916E00816080936E00109281006D
:100D40008091810082608093810080918100816028
:100D500080938100809180008160809380008091E9
:100D6000B10084608093B1008091B0008160809375
:100D7000B00080917A00846080937A0080917A003C
:100D8000826080937A0080917A00816080937A00FB
:100D900080917A00806880937A001092C10082E08E
:100DA0000E94F20363E471E081EC92E00E949904F6
:100DB000E091D402E23008F059C0E150F0E0EF5386
:100DC000FD4F848980680E94E40363E571E081EC53
:100DD00092E00E94990468EB7BE080E090E00E9442
:100DE000E0020E94EA0365E0462E512C612C712C32
:100DF00022242A94322C50E0852E50E0952E81E05A
:100E0000809345038FB7F8944091200250912102BE
:100E100060912202709123028FBF809135039091DF
:100E20003603A0913703B0913803481B590B6A0B66
:100E30007B0B8091410390914203B0E0A0E08417C6
:100E40009507A607B70708F09EC1C0E080913F0351
:100E5000C81770F4E0913B03F0913C03EC0FF11DD7
:100E600062E080810E947F02CF5FF0CFE1E0A6CFF9
:100E7000B12C80914003B81608F061C00B2D10E032
:100E8000E0913D03F0913E03E00FF11F61E08081AE
:100E90000E947F02E0913D03F0913E03E00FF11FBD
:100EA00060E080810E94510281E090E0A0E0B0E02B
:100EB0000B2C04C0880F991FAA1FBB1F0A94D2F7DE
:100EC0006C017C01E094F094A12C80913F03A81662
:100ED000F8F4CA2DD0E0E0913B03F0913C03EC0F15
:100EE000FD1F80810E9428022496CC0FDD1FC7526F
:100EF000DD4F892B41F4888199818C299D29998323
:100F00008883A394E2CF888199818E219F21F7CF96
:100F1000E0913D03F0913E03E00FF11F61E080811D
:100F20000E94510280913D0390913E03080F191FCA
:100F300060E0D8018C910E947F02B3949ACF29ED92
:100F4000C22E22E0D22EE6018F8D98A1892B21F4AA
:100F50001C8E3E8E2D8E19A22696E5E1F3E0EC174D
:100F6000FD0791F710E096E0B92E80913F03181726
:100F700008F052C000E0E12EF12CEE0CFF1CC7017E
:100F80008F519D4F7C0120914003021708F042C011
:100F9000D7016D917C91002E02C0769567950A94D9
:100FA000E2F7129F90011124200F311DE9EDF2E0CC
:100FB00080E0458D568D2417350709F4DDC38F5F1A
:100FC00036968A30B1F760FF23C0E9EDF2E090E099
:100FD00080E0448D411117C0E0913903F0913A034C
:100FE000E20FF31F6081B89EF001B99EF00D11244D
:100FF000E752FD4F648F368F258F10A2178E61E068
:101000000E94AF0005C0019636968A30910509F717
:101010000F5FB9CF1F5FA9CF80E0F60191A19111B9
:10102000892FF6E0CF0ED11CCC15DD05B1F79FB7A7
:10103000F894409120025091210260912202709117
:1010400023029FBF409335035093360360933703C9
:1010500070933803882309F496C08091FA0288239C
:1010600009F491C08091F8029091F902019709F07A
:101070008AC0C091F502C0931A02C11189C0809143
:101080001902882309F1809114028B3209F015C3EB
:101090008091150290911602A0911702B09118024A
:1010A000409110025091110260911202709113024E
:1010B000840F951FA61FB71F80930C0290930D02FB
:1010C000A0930E02B0930F02E1E08091D40281114F
:1010D000E0E0E195F0E0EF53FD4F848980680E94E5
:1010E000E4036091150270911602809117029091AD
:1010F00018020E94A80441E06091140281EC92E081
:101100000E9491036091100270911102809112026D
:10111000909113020E94A80480911902882381F003
:1011200068E072E081EC92E00E94990460910C0208
:1011300070910D0280910E0290910F020E94A804FE
:10114000E091D402E23008F015C3E150F0E0EF5333
:10115000FD4F848980680E94E40360910C027091C5
:101160000D0280910E0290910F020E94A80481143A
:10117000910409F444CE0E94EB01882309F438CE8F
:101180000E94000035CE1092450310921A0277CFCC
:101190000E94EA03CA3201F56EE571E084E292E052
:1011A0000E941E051092100210921102109212025B
:1011B000109213021092150210921602109217024A
:1011C0001092180210920C0210920D0210920E0250
:1011D00010920F021092190280911A02813301F5C8
:1011E0006CE671E084E292E00E941E0520910C0200
:1011F00030910D0240910E0250910F0221153105E0
:101200004105510509F0C0C181E090E0A0E0B0E0E7
:1012100080930C0290930D02A0930E02B0930F02E4
:1012200080911A02843301F565E771E084E292E06F
:101230000E941E0520910C0230910D0240910E0279
:1012400050910F02211531054105510509F0ADC13D
:1012500084E090E0A0E0B0E080930C0290930D0257
:10126000A0930E02B0930F0280911A02873301F50A
:101270006EE771E084E292E00E941E0520910C026C
:1012800030910D0240910E0250910F02211531054F
:101290004105510509F09AC187E090E0A0E0B0E077
:1012A00080930C0290930D02A0930E02B0930F0254
:1012B00080911A028033F9F467E871E084E292E0E9
:1012C0000E941E0520910C0230910D0240910E02E9
:1012D00050910F02211531054105510561F0AAE039
:1012E000B0E00E940F0C60930C0270930D0280938B
:1012F0000E0290930F0280911A02823301F560E989
:1013000071E084E292E00E941E0520910C0230916F
:101310000D0240910E0250910F0221153105410539
:10132000510509F064C182E090E0A0E0B0E0809354
:101330000C0290930D02A0930E02B0930F028091C5
:101340001A028533E1F469E971E084E292E00E94D7
:101350001E0520910C0230910D0240910E02509119
:101360000F02211531054105510509F051C1409287
:101370000C0250920D0260920E0270920F02809148
:101380001A02883301F562EA71E084E292E00E9479
:101390001E0520910C0230910D0240910E025091D9
:1013A0000F02211531054105510509F042C188E0C0
:1013B00090E0A0E0B0E080930C0290930D02A09327
:1013C0000E02B0930F0280911A028332C9F46BEAC5
:1013D00071E084E292E00E941E0580910C029091DF
:1013E0000D02A0910E02B0910F0280931002909313
:1013F0001102A0931202B093130281E080931902AC
:1014000080911A02833301F568EB71E084E292E087
:101410000E941E0520910C0230910D0240910E0297
:1014200050910F02211531054105510509F012C1F6
:1014300083E090E0A0E0B0E080930C0290930D0276
:10144000A0930E02B0930F0280911A02863301F529
:1014500061EC71E084E292E00E941E0520910C0292
:1014600030910D0240910E0250910F02211531056D
:101470004105510509F0FFC086E090E0A0E0B0E032
:1014800080930C0290930D02A0930E02B0930F0272
:1014900080911A02893301F56AEC71E084E292E0EE
:1014A0000E941E0520910C0230910D0240910E0207
:1014B00050910F02211531054105510509F0ECC08D
:1014C00089E090E0A0E0B0E080930C0290930D02E0
:1014D000A0930E02B0930F0280911A029FEB980F17
:1014E000943008F0CCCD40910C0250910D026091E7
:1014F0000E0270910F0240931502509316026093F2
:1015000017027093180210920C0210920D021092A2
:101510000E0210920F02813449F463ED71E084E20F
:1015200092E00E941E058BE28093140280911A02C1
:10153000823449F46CED71E084E292E00E941E0571
:101540008DE28093140280911A02833449F468EE8C
:1015500071E084E292E00E941E058AE28093140208
:1015600080911A02843449F467EF71E084E292E0DA
:101570000E941E058FE28093140264E670E080E012
:1015800090E00E94E0027BCDAAE0B0E00E940F0C48
:101590006F5F7F4F8F4F9F4F60930C0270930D02D0
:1015A00080930E0290930F023BCEAAE0B0E00E941F
:1015B0000F0C6C5F7F4F8F4F9F4F60930C027093A7
:1015C0000D0280930E0290930F024ECEAAE0B0E07F
:1015D0000E940F0C695F7F4F8F4F9F4F60930C02EB
:1015E00070930D0280930E0290930F0261CEAAE0D9
:1015F000B0E00E940F0C6E5F7F4F8F4F9F4F609344
:101600000C0270930D0280930E0290930F0297CEFE
:10161000AAE0B0E00E940F0C6B5F7F4F8F4F9F4F8F
:1016200060930C0270930D0280930E0290930F0250
:10163000A6CEAAE0B0E00E940F0C685F7F4F8F4FEC
:101640009F4F60930C0270930D0280930E02909353
:101650000F02B9CEAAE0B0E00E940F0C6D5F7F4F81
:101660008F4F9F4F60930C0270930D0280930E0278
:1016700090930F02E9CEAAE0B0E00E940F0C6A5FDF
:101680007F4F8F4F9F4F60930C0270930D0280939A
:101690000E0290930F02FCCEAAE0B0E00E940F0C65
:1016A000675F7F4F8F4F9F4F60930C0270930D02C7
:1016B00080930E0290930F020FCF8D32A9F4809188
:1016C000150290911602A0911702B0911802409154
:1016D0001002509111026091120270911302841B4A
:1016E000950BA60BB70BE8CC8A32D9F420911502E2
:1016F0003091160240911702509118026091100229
:101700007091110280911202909113020E94BE0BFF
:1017100060930C0270930D0280930E0290930F025F
:10172000D3CC8F3201F520911002309111024091FB
:10173000120250911302211531054105510599F00E
:101740006091150270911602809117029091180213
:101750000E94F00B20930C0230930D0240930E0276
:1017600050930F02B1CC60E072E081EC92E00E94F5
:101770001E05AACCE1E0EACC617042CCDB018F937C
:101780009F930E940F0CBF91AF91A29F800D911D5E
:10179000A39F900DB29F900D11240895A1E21A2EDF
:1017A000AA1BBB1BFD010DC0AA1FBB1FEE1FFF1F05
:1017B000A217B307E407F50720F0A21BB30BE40B55
:1017C000F50B661F771F881F991F1A9469F760959C
:1017D0007095809590959B01AC01BD01CF01089556
:1017E000052E97FB1EF400940E94070C57FD07D0AE
:1017F0000E94CE0B07FC03D04EF40C94070C5095BE
:101800004095309521953F4F4F4F5F4F08959095EC
:101810008095709561957F4F8F4F9F4F08950E94DF
:10182000200CA59F900DB49F900DA49F800D911D3D
:1018300011240895EE0FFF1F0590F491E02D0994F7
:10184000A29FB001B39FC001A39F700D811D112401
:10185000911DB29F700D811D1124911D0895F89462
:02186000FFCFB8
:10186200040506070001020337383944343536438C
:10187200313233422A302341000000007E011D0331
:101882001F01CB0150012E01420100000000930410
:101892001D034B034A0300000000120316031A0340
:1018A2000D0A00484920454E472F2041484D4544E6
:1018B200202100747279206D65202E2E2000427541
:1018C20074746F6E2043616E63656C00427574744C
:1018D2006F6E203100427574746F6E203400427551
:1018E20074746F6E203700427574746F6E2030000E
:1018F200427574746F6E203200427574746F6E207C
:101902003500427574746F6E203800427574746FBE
:101912006E20457175616C00427574746F6E203370
:1019220000427574746F6E203600427574746F6E67
:101932002039004164646974696F6E005375627482
:1019420072616374696F6E004D756C7469706C6955
:10195200636174696F6E004465766573696F6E00CA
:0C196200206572726F722000203D0000B2
:00000001FF
